{
  "contractName": "Coin",
  "abi": [
    {
      "inputs": [],
      "stateMutability": "nonpayable",
      "type": "constructor"
    },
    {
      "anonymous": false,
      "inputs": [
        {
          "indexed": true,
          "internalType": "address",
          "name": "owner",
          "type": "address"
        },
        {
          "indexed": true,
          "internalType": "address",
          "name": "approved",
          "type": "address"
        },
        {
          "indexed": true,
          "internalType": "uint256",
          "name": "tokenId",
          "type": "uint256"
        }
      ],
      "name": "Approval",
      "type": "event"
    },
    {
      "anonymous": false,
      "inputs": [
        {
          "indexed": true,
          "internalType": "address",
          "name": "owner",
          "type": "address"
        },
        {
          "indexed": true,
          "internalType": "address",
          "name": "operator",
          "type": "address"
        },
        {
          "indexed": false,
          "internalType": "bool",
          "name": "approved",
          "type": "bool"
        }
      ],
      "name": "ApprovalForAll",
      "type": "event"
    },
    {
      "anonymous": false,
      "inputs": [
        {
          "indexed": true,
          "internalType": "address",
          "name": "previousOwner",
          "type": "address"
        },
        {
          "indexed": true,
          "internalType": "address",
          "name": "newOwner",
          "type": "address"
        }
      ],
      "name": "OwnershipTransferred",
      "type": "event"
    },
    {
      "anonymous": false,
      "inputs": [
        {
          "indexed": true,
          "internalType": "address",
          "name": "from",
          "type": "address"
        },
        {
          "indexed": true,
          "internalType": "address",
          "name": "to",
          "type": "address"
        },
        {
          "indexed": true,
          "internalType": "uint256",
          "name": "tokenId",
          "type": "uint256"
        }
      ],
      "name": "Transfer",
      "type": "event"
    },
    {
      "inputs": [],
      "name": "CoinCollectionAddress",
      "outputs": [
        {
          "internalType": "address",
          "name": "",
          "type": "address"
        }
      ],
      "stateMutability": "view",
      "type": "function",
      "constant": true
    },
    {
      "inputs": [],
      "name": "admin",
      "outputs": [
        {
          "internalType": "address",
          "name": "",
          "type": "address"
        }
      ],
      "stateMutability": "view",
      "type": "function",
      "constant": true
    },
    {
      "inputs": [
        {
          "internalType": "address",
          "name": "to",
          "type": "address"
        },
        {
          "internalType": "uint256",
          "name": "tokenId",
          "type": "uint256"
        }
      ],
      "name": "approve",
      "outputs": [],
      "stateMutability": "nonpayable",
      "type": "function"
    },
    {
      "inputs": [
        {
          "internalType": "address",
          "name": "owner",
          "type": "address"
        }
      ],
      "name": "balanceOf",
      "outputs": [
        {
          "internalType": "uint256",
          "name": "",
          "type": "uint256"
        }
      ],
      "stateMutability": "view",
      "type": "function",
      "constant": true
    },
    {
      "inputs": [
        {
          "internalType": "uint256",
          "name": "tokenId",
          "type": "uint256"
        }
      ],
      "name": "getApproved",
      "outputs": [
        {
          "internalType": "address",
          "name": "",
          "type": "address"
        }
      ],
      "stateMutability": "view",
      "type": "function",
      "constant": true
    },
    {
      "inputs": [
        {
          "internalType": "address",
          "name": "owner",
          "type": "address"
        },
        {
          "internalType": "address",
          "name": "operator",
          "type": "address"
        }
      ],
      "name": "isApprovedForAll",
      "outputs": [
        {
          "internalType": "bool",
          "name": "",
          "type": "bool"
        }
      ],
      "stateMutability": "view",
      "type": "function",
      "constant": true
    },
    {
      "inputs": [],
      "name": "name",
      "outputs": [
        {
          "internalType": "string",
          "name": "",
          "type": "string"
        }
      ],
      "stateMutability": "view",
      "type": "function",
      "constant": true
    },
    {
      "inputs": [],
      "name": "owner",
      "outputs": [
        {
          "internalType": "address",
          "name": "",
          "type": "address"
        }
      ],
      "stateMutability": "view",
      "type": "function",
      "constant": true
    },
    {
      "inputs": [
        {
          "internalType": "uint256",
          "name": "tokenId",
          "type": "uint256"
        }
      ],
      "name": "ownerOf",
      "outputs": [
        {
          "internalType": "address",
          "name": "",
          "type": "address"
        }
      ],
      "stateMutability": "view",
      "type": "function",
      "constant": true
    },
    {
      "inputs": [],
      "name": "renounceOwnership",
      "outputs": [],
      "stateMutability": "nonpayable",
      "type": "function"
    },
    {
      "inputs": [
        {
          "internalType": "address",
          "name": "from",
          "type": "address"
        },
        {
          "internalType": "address",
          "name": "to",
          "type": "address"
        },
        {
          "internalType": "uint256",
          "name": "tokenId",
          "type": "uint256"
        }
      ],
      "name": "safeTransferFrom",
      "outputs": [],
      "stateMutability": "nonpayable",
      "type": "function"
    },
    {
      "inputs": [
        {
          "internalType": "address",
          "name": "from",
          "type": "address"
        },
        {
          "internalType": "address",
          "name": "to",
          "type": "address"
        },
        {
          "internalType": "uint256",
          "name": "tokenId",
          "type": "uint256"
        },
        {
          "internalType": "bytes",
          "name": "_data",
          "type": "bytes"
        }
      ],
      "name": "safeTransferFrom",
      "outputs": [],
      "stateMutability": "nonpayable",
      "type": "function"
    },
    {
      "inputs": [
        {
          "internalType": "address",
          "name": "operator",
          "type": "address"
        },
        {
          "internalType": "bool",
          "name": "approved",
          "type": "bool"
        }
      ],
      "name": "setApprovalForAll",
      "outputs": [],
      "stateMutability": "nonpayable",
      "type": "function"
    },
    {
      "inputs": [
        {
          "internalType": "bytes4",
          "name": "interfaceId",
          "type": "bytes4"
        }
      ],
      "name": "supportsInterface",
      "outputs": [
        {
          "internalType": "bool",
          "name": "",
          "type": "bool"
        }
      ],
      "stateMutability": "view",
      "type": "function",
      "constant": true
    },
    {
      "inputs": [],
      "name": "symbol",
      "outputs": [
        {
          "internalType": "string",
          "name": "",
          "type": "string"
        }
      ],
      "stateMutability": "view",
      "type": "function",
      "constant": true
    },
    {
      "inputs": [
        {
          "internalType": "uint256",
          "name": "tokenId",
          "type": "uint256"
        }
      ],
      "name": "tokenURI",
      "outputs": [
        {
          "internalType": "string",
          "name": "",
          "type": "string"
        }
      ],
      "stateMutability": "view",
      "type": "function",
      "constant": true
    },
    {
      "inputs": [
        {
          "internalType": "address",
          "name": "from",
          "type": "address"
        },
        {
          "internalType": "address",
          "name": "to",
          "type": "address"
        },
        {
          "internalType": "uint256",
          "name": "tokenId",
          "type": "uint256"
        }
      ],
      "name": "transferFrom",
      "outputs": [],
      "stateMutability": "nonpayable",
      "type": "function"
    },
    {
      "inputs": [
        {
          "internalType": "address",
          "name": "newOwner",
          "type": "address"
        }
      ],
      "name": "transferOwnership",
      "outputs": [],
      "stateMutability": "nonpayable",
      "type": "function"
    },
    {
      "inputs": [
        {
          "internalType": "address",
          "name": "_coinCollectionAddress",
          "type": "address"
        }
      ],
      "name": "updateCoinCollectionAddress",
      "outputs": [],
      "stateMutability": "nonpayable",
      "type": "function"
    },
    {
      "inputs": [
        {
          "internalType": "address",
          "name": "recipient",
          "type": "address"
        },
        {
          "internalType": "uint256",
          "name": "numCoins",
          "type": "uint256"
        },
        {
          "internalType": "string",
          "name": "tokenURI",
          "type": "string"
        }
      ],
      "name": "mintNFT",
      "outputs": [],
      "stateMutability": "nonpayable",
      "type": "function"
    }
  ],
  "bytecode": "0x60806040523480156200001157600080fd5b506040518060400160405280600e81526020017f436f696e436f6c6c656374696f6e0000000000000000000000000000000000008152506040518060400160405280600481526020017f434f494e00000000000000000000000000000000000000000000000000000000815250816000908051906020019062000096929190620001f9565b508060019080519060200190620000af929190620001f9565b505050620000e4620000cf6200012b640100000000026401000000009004565b62000133640100000000026401000000009004565b33600960006101000a81548173ffffffffffffffffffffffffffffffffffffffff021916908373ffffffffffffffffffffffffffffffffffffffff1602179055506200030e565b600033905090565b6000600760009054906101000a900473ffffffffffffffffffffffffffffffffffffffff16905081600760006101000a81548173ffffffffffffffffffffffffffffffffffffffff021916908373ffffffffffffffffffffffffffffffffffffffff1602179055508173ffffffffffffffffffffffffffffffffffffffff168173ffffffffffffffffffffffffffffffffffffffff167f8be0079c531659141344cd1fd0a4f28419497f9722a3daafe3b4186f6b6457e060405160405180910390a35050565b8280546200020790620002a9565b90600052602060002090601f0160209004810192826200022b576000855562000277565b82601f106200024657805160ff191683800117855562000277565b8280016001018555821562000277579182015b828111156200027657825182559160200191906001019062000259565b5b5090506200028691906200028a565b5090565b5b80821115620002a55760008160009055506001016200028b565b5090565b60006002820490506001821680620002c257607f821691505b60208210811415620002d957620002d8620002df565b5b50919050565b7f4e487b7100000000000000000000000000000000000000000000000000000000600052602260045260246000fd5b613146806200031e6000396000f3fe608060405234801561001057600080fd5b5060043610610149576000357c01000000000000000000000000000000000000000000000000000000009004806370a08231116100ca578063b88d4fde1161008e578063b88d4fde14610338578063c87b56dd14610354578063e985e9c514610384578063f2fde38b146103b4578063f851a440146103d057610149565b806370a08231146102a6578063715018a6146102d65780638da5cb5b146102e057806395d89b41146102fe578063a22cb4651461031c57610149565b80631e576912116101115780631e5769121461020657806323b872dd1461022257806342842e0e1461023e57806362aec6bc1461025a5780636352211e1461027657610149565b806301ffc9a71461014e57806306fdde031461017e578063081812fc1461019c578063095ea7b3146101cc5780630a51e613146101e8575b600080fd5b6101686004803603810190610163919061216e565b6103ee565b6040516101759190612a3e565b60405180910390f35b6101866104d0565b6040516101939190612a59565b60405180910390f35b6101b660048036038101906101b191906121c0565b610562565b6040516101c391906129d7565b60405180910390f35b6101e660048036038101906101e191906120cb565b6105e7565b005b6101f06106ff565b6040516101fd91906129d7565b60405180910390f35b610220600480360381019061021b9190612107565b610725565b005b61023c60048036038101906102379190611fc5565b610776565b005b61025860048036038101906102539190611fc5565b6107d6565b005b610274600480360381019061026f9190611f60565b6107f6565b005b610290600480360381019061028b91906121c0565b610925565b60405161029d91906129d7565b60405180910390f35b6102c060048036038101906102bb9190611f60565b6109d7565b6040516102cd9190612cdb565b60405180910390f35b6102de610a8f565b005b6102e8610b17565b6040516102f591906129d7565b60405180910390f35b610306610b41565b6040516103139190612a59565b60405180910390f35b6103366004803603810190610331919061208f565b610bd3565b005b610352600480360381019061034d9190612014565b610d54565b005b61036e600480360381019061036991906121c0565b610db6565b60405161037b9190612a59565b60405180910390f35b61039e60048036038101906103999190611f89565b610f08565b6040516103ab9190612a3e565b60405180910390f35b6103ce60048036038101906103c99190611f60565b610f9c565b005b6103d8611094565b6040516103e591906129d7565b60405180910390f35b60007f80ac58cd000000000000000000000000000000000000000000000000000000007bffffffffffffffffffffffffffffffffffffffffffffffffffffffff1916827bffffffffffffffffffffffffffffffffffffffffffffffffffffffff191614806104b957507f5b5e139f000000000000000000000000000000000000000000000000000000007bffffffffffffffffffffffffffffffffffffffffffffffffffffffff1916827bffffffffffffffffffffffffffffffffffffffffffffffffffffffff1916145b806104c957506104c8826110ba565b5b9050919050565b6060600080546104df90612f3b565b80601f016020809104026020016040519081016040528092919081815260200182805461050b90612f3b565b80156105585780601f1061052d57610100808354040283529160200191610558565b820191906000526020600020905b81548152906001019060200180831161053b57829003601f168201915b5050505050905090565b600061056d82611124565b6105ac576040517f08c379a00000000000000000000000000000000000000000000000000000000081526004016105a390612c1b565b60405180910390fd5b6004600083815260200190815260200160002060009054906101000a900473ffffffffffffffffffffffffffffffffffffffff169050919050565b60006105f282610925565b90508073ffffffffffffffffffffffffffffffffffffffff168373ffffffffffffffffffffffffffffffffffffffff161415610663576040517f08c379a000000000000000000000000000000000000000000000000000000000815260040161065a90612c9b565b60405180910390fd5b8073ffffffffffffffffffffffffffffffffffffffff16610682611190565b73ffffffffffffffffffffffffffffffffffffffff1614806106b157506106b0816106ab611190565b610f08565b5b6106f0576040517f08c379a00000000000000000000000000000000000000000000000000000000081526004016106e790612b3b565b60405180910390fd5b6106fa8383611198565b505050565b600a60009054906101000a900473ffffffffffffffffffffffffffffffffffffffff1681565b60005b828110156107705761073a6008611251565b60006107466008611267565b90506107528582611275565b61075c8184611443565b50808061076890612f6d565b915050610728565b50505050565b610787610781611190565b826114b7565b6107c6576040517f08c379a00000000000000000000000000000000000000000000000000000000081526004016107bd90612cbb565b60405180910390fd5b6107d1838383611595565b505050565b6107f183838360405180602001604052806000815250610d54565b505050565b600960009054906101000a900473ffffffffffffffffffffffffffffffffffffffff1673ffffffffffffffffffffffffffffffffffffffff163373ffffffffffffffffffffffffffffffffffffffff1614610886576040517f08c379a000000000000000000000000000000000000000000000000000000000815260040161087d90612bbb565b60405180910390fd5b600a60009054906101000a900473ffffffffffffffffffffffffffffffffffffffff1673ffffffffffffffffffffffffffffffffffffffff168173ffffffffffffffffffffffffffffffffffffffff1614156108e157600080fd5b80600a60006101000a81548173ffffffffffffffffffffffffffffffffffffffff021916908373ffffffffffffffffffffffffffffffffffffffff16021790555050565b6000806002600084815260200190815260200160002060009054906101000a900473ffffffffffffffffffffffffffffffffffffffff169050600073ffffffffffffffffffffffffffffffffffffffff168173ffffffffffffffffffffffffffffffffffffffff1614156109ce576040517f08c379a00000000000000000000000000000000000000000000000000000000081526004016109c590612b7b565b60405180910390fd5b80915050919050565b60008073ffffffffffffffffffffffffffffffffffffffff168273ffffffffffffffffffffffffffffffffffffffff161415610a48576040517f08c379a0000000000000000000000000000000000000000000000000000000008152600401610a3f90612b5b565b60405180910390fd5b600360008373ffffffffffffffffffffffffffffffffffffffff1673ffffffffffffffffffffffffffffffffffffffff168152602001908152602001600020549050919050565b610a97611190565b73ffffffffffffffffffffffffffffffffffffffff16610ab5610b17565b73ffffffffffffffffffffffffffffffffffffffff1614610b0b576040517f08c379a0000000000000000000000000000000000000000000000000000000008152600401610b0290612c3b565b60405180910390fd5b610b1560006117f1565b565b6000600760009054906101000a900473ffffffffffffffffffffffffffffffffffffffff16905090565b606060018054610b5090612f3b565b80601f0160208091040260200160405190810160405280929190818152602001828054610b7c90612f3b565b8015610bc95780601f10610b9e57610100808354040283529160200191610bc9565b820191906000526020600020905b815481529060010190602001808311610bac57829003601f168201915b5050505050905090565b610bdb611190565b73ffffffffffffffffffffffffffffffffffffffff168273ffffffffffffffffffffffffffffffffffffffff161415610c49576040517f08c379a0000000000000000000000000000000000000000000000000000000008152600401610c4090612afb565b60405180910390fd5b8060056000610c56611190565b73ffffffffffffffffffffffffffffffffffffffff1673ffffffffffffffffffffffffffffffffffffffff16815260200190815260200160002060008473ffffffffffffffffffffffffffffffffffffffff1673ffffffffffffffffffffffffffffffffffffffff16815260200190815260200160002060006101000a81548160ff0219169083151502179055508173ffffffffffffffffffffffffffffffffffffffff16610d03611190565b73ffffffffffffffffffffffffffffffffffffffff167f17307eab39ab6107e8899845ad3d59bd9653f200f220920489ca2b5937696c3183604051610d489190612a3e565b60405180910390a35050565b610d65610d5f611190565b836114b7565b610da4576040517f08c379a0000000000000000000000000000000000000000000000000000000008152600401610d9b90612cbb565b60405180910390fd5b610db0848484846118b7565b50505050565b6060610dc182611124565b610e00576040517f08c379a0000000000000000000000000000000000000000000000000000000008152600401610df790612bfb565b60405180910390fd5b6000600660008481526020019081526020016000208054610e2090612f3b565b80601f0160208091040260200160405190810160405280929190818152602001828054610e4c90612f3b565b8015610e995780601f10610e6e57610100808354040283529160200191610e99565b820191906000526020600020905b815481529060010190602001808311610e7c57829003601f168201915b505050505090506000610eaa611913565b9050600081511415610ec0578192505050610f03565b600082511115610ef5578082604051602001610edd9291906129b3565b60405160208183030381529060405292505050610f03565b610efe8461192a565b925050505b919050565b6000600560008473ffffffffffffffffffffffffffffffffffffffff1673ffffffffffffffffffffffffffffffffffffffff16815260200190815260200160002060008373ffffffffffffffffffffffffffffffffffffffff1673ffffffffffffffffffffffffffffffffffffffff16815260200190815260200160002060009054906101000a900460ff16905092915050565b610fa4611190565b73ffffffffffffffffffffffffffffffffffffffff16610fc2610b17565b73ffffffffffffffffffffffffffffffffffffffff1614611018576040517f08c379a000000000000000000000000000000000000000000000000000000000815260040161100f90612c3b565b60405180910390fd5b600073ffffffffffffffffffffffffffffffffffffffff168173ffffffffffffffffffffffffffffffffffffffff161415611088576040517f08c379a000000000000000000000000000000000000000000000000000000000815260040161107f90612a9b565b60405180910390fd5b611091816117f1565b50565b600960009054906101000a900473ffffffffffffffffffffffffffffffffffffffff1681565b60007f01ffc9a7000000000000000000000000000000000000000000000000000000007bffffffffffffffffffffffffffffffffffffffffffffffffffffffff1916827bffffffffffffffffffffffffffffffffffffffffffffffffffffffff1916149050919050565b60008073ffffffffffffffffffffffffffffffffffffffff166002600084815260200190815260200160002060009054906101000a900473ffffffffffffffffffffffffffffffffffffffff1673ffffffffffffffffffffffffffffffffffffffff1614159050919050565b600033905090565b816004600083815260200190815260200160002060006101000a81548173ffffffffffffffffffffffffffffffffffffffff021916908373ffffffffffffffffffffffffffffffffffffffff160217905550808273ffffffffffffffffffffffffffffffffffffffff1661120b83610925565b73ffffffffffffffffffffffffffffffffffffffff167f8c5be1e5ebec7d5bd14f71427d1e84f3dd0314c0f7b2291e5b200ac8c7c3b92560405160405180910390a45050565b6001816000016000828254019250508190555050565b600081600001549050919050565b600073ffffffffffffffffffffffffffffffffffffffff168273ffffffffffffffffffffffffffffffffffffffff1614156112e5576040517f08c379a00000000000000000000000000000000000000000000000000000000081526004016112dc90612bdb565b60405180910390fd5b6112ee81611124565b1561132e576040517f08c379a000000000000000000000000000000000000000000000000000000000815260040161132590612abb565b60405180910390fd5b61133a600083836119d1565b6001600360008473ffffffffffffffffffffffffffffffffffffffff1673ffffffffffffffffffffffffffffffffffffffff168152602001908152602001600020600082825461138a9190612dca565b92505081905550816002600083815260200190815260200160002060006101000a81548173ffffffffffffffffffffffffffffffffffffffff021916908373ffffffffffffffffffffffffffffffffffffffff160217905550808273ffffffffffffffffffffffffffffffffffffffff16600073ffffffffffffffffffffffffffffffffffffffff167fddf252ad1be2c89b69c2b068fc378daa952ba7f163c4a11628f55a4df523b3ef60405160405180910390a45050565b61144c82611124565b61148b576040517f08c379a000000000000000000000000000000000000000000000000000000000815260040161148290612b9b565b60405180910390fd5b806006600084815260200190815260200160002090805190602001906114b2929190611d84565b505050565b60006114c282611124565b611501576040517f08c379a00000000000000000000000000000000000000000000000000000000081526004016114f890612b1b565b60405180910390fd5b600061150c83610925565b90508073ffffffffffffffffffffffffffffffffffffffff168473ffffffffffffffffffffffffffffffffffffffff16148061157b57508373ffffffffffffffffffffffffffffffffffffffff1661156384610562565b73ffffffffffffffffffffffffffffffffffffffff16145b8061158c575061158b8185610f08565b5b91505092915050565b8273ffffffffffffffffffffffffffffffffffffffff166115b582610925565b73ffffffffffffffffffffffffffffffffffffffff161461160b576040517f08c379a000000000000000000000000000000000000000000000000000000000815260040161160290612c5b565b60405180910390fd5b600073ffffffffffffffffffffffffffffffffffffffff168273ffffffffffffffffffffffffffffffffffffffff16141561167b576040517f08c379a000000000000000000000000000000000000000000000000000000000815260040161167290612adb565b60405180910390fd5b6116868383836119d1565b611691600082611198565b6001600360008573ffffffffffffffffffffffffffffffffffffffff1673ffffffffffffffffffffffffffffffffffffffff16815260200190815260200160002060008282546116e19190612e51565b925050819055506001600360008473ffffffffffffffffffffffffffffffffffffffff1673ffffffffffffffffffffffffffffffffffffffff16815260200190815260200160002060008282546117389190612dca565b92505081905550816002600083815260200190815260200160002060006101000a81548173ffffffffffffffffffffffffffffffffffffffff021916908373ffffffffffffffffffffffffffffffffffffffff160217905550808273ffffffffffffffffffffffffffffffffffffffff168473ffffffffffffffffffffffffffffffffffffffff167fddf252ad1be2c89b69c2b068fc378daa952ba7f163c4a11628f55a4df523b3ef60405160405180910390a4505050565b6000600760009054906101000a900473ffffffffffffffffffffffffffffffffffffffff16905081600760006101000a81548173ffffffffffffffffffffffffffffffffffffffff021916908373ffffffffffffffffffffffffffffffffffffffff1602179055508173ffffffffffffffffffffffffffffffffffffffff168173ffffffffffffffffffffffffffffffffffffffff167f8be0079c531659141344cd1fd0a4f28419497f9722a3daafe3b4186f6b6457e060405160405180910390a35050565b6118c2848484611595565b6118ce848484846119d6565b61190d576040517f08c379a000000000000000000000000000000000000000000000000000000000815260040161190490612a7b565b60405180910390fd5b50505050565b606060405180602001604052806000815250905090565b606061193582611124565b611974576040517f08c379a000000000000000000000000000000000000000000000000000000000815260040161196b90612c7b565b60405180910390fd5b600061197e611913565b9050600081511161199e57604051806020016040528060008152506119c9565b806119a884611ba5565b6040516020016119b99291906129b3565b6040516020818303038152906040525b915050919050565b505050565b60006119f78473ffffffffffffffffffffffffffffffffffffffff16611d71565b15611b98578373ffffffffffffffffffffffffffffffffffffffff1663150b7a02611a20611190565b8786866040518563ffffffff167c0100000000000000000000000000000000000000000000000000000000028152600401611a5e94939291906129f2565b602060405180830381600087803b158015611a7857600080fd5b505af1925050508015611aa957506040513d601f19601f82011682018060405250810190611aa69190612197565b60015b611b2c573d8060008114611ad9576040519150601f19603f3d011682016040523d82523d6000602084013e611ade565b606091505b50600081511415611b24576040517f08c379a0000000000000000000000000000000000000000000000000000000008152600401611b1b90612a7b565b60405180910390fd5b805181602001fd5b63150b7a027c0100000000000000000000000000000000000000000000000000000000027bffffffffffffffffffffffffffffffffffffffffffffffffffffffff1916817bffffffffffffffffffffffffffffffffffffffffffffffffffffffff191614915050611b9d565b600190505b949350505050565b60606000821415611bed576040518060400160405280600181526020017f30000000000000000000000000000000000000000000000000000000000000008152509050611d6c565b600082905060005b60008214611c1f578080611c0890612f6d565b915050600a82611c189190612e20565b9150611bf5565b60008167ffffffffffffffff811115611c61577f4e487b7100000000000000000000000000000000000000000000000000000000600052604160045260246000fd5b6040519080825280601f01601f191660200182016040528015611c935781602001600182028036833780820191505090505b5090505b60008514611d6557600182611cac9190612e51565b9150600a85611cbb9190612fb6565b6030611cc79190612dca565b7f010000000000000000000000000000000000000000000000000000000000000002818381518110611d22577f4e487b7100000000000000000000000000000000000000000000000000000000600052603260045260246000fd5b60200101907effffffffffffffffffffffffffffffffffffffffffffffffffffffffffffff1916908160001a905350600a85611d5e9190612e20565b9450611c97565b8093505050505b919050565b600080823b905060008111915050919050565b828054611d9090612f3b565b90600052602060002090601f016020900481019282611db25760008555611df9565b82601f10611dcb57805160ff1916838001178555611df9565b82800160010185558215611df9579182015b82811115611df8578251825591602001919060010190611ddd565b5b509050611e069190611e0a565b5090565b5b80821115611e23576000816000905550600101611e0b565b5090565b6000611e3a611e3584612d27565b612cf6565b905082815260208101848484011115611e5257600080fd5b611e5d848285612ef9565b509392505050565b6000611e78611e7384612d57565b612cf6565b905082815260208101848484011115611e9057600080fd5b611e9b848285612ef9565b509392505050565b600081359050611eb2816130b4565b92915050565b600081359050611ec7816130cb565b92915050565b600081359050611edc816130e2565b92915050565b600081519050611ef1816130e2565b92915050565b600082601f830112611f0857600080fd5b8135611f18848260208601611e27565b91505092915050565b600082601f830112611f3257600080fd5b8135611f42848260208601611e65565b91505092915050565b600081359050611f5a816130f9565b92915050565b600060208284031215611f7257600080fd5b6000611f8084828501611ea3565b91505092915050565b60008060408385031215611f9c57600080fd5b6000611faa85828601611ea3565b9250506020611fbb85828601611ea3565b9150509250929050565b600080600060608486031215611fda57600080fd5b6000611fe886828701611ea3565b9350506020611ff986828701611ea3565b925050604061200a86828701611f4b565b9150509250925092565b6000806000806080858703121561202a57600080fd5b600061203887828801611ea3565b945050602061204987828801611ea3565b935050604061205a87828801611f4b565b925050606085013567ffffffffffffffff81111561207757600080fd5b61208387828801611ef7565b91505092959194509250565b600080604083850312156120a257600080fd5b60006120b085828601611ea3565b92505060206120c185828601611eb8565b9150509250929050565b600080604083850312156120de57600080fd5b60006120ec85828601611ea3565b92505060206120fd85828601611f4b565b9150509250929050565b60008060006060848603121561211c57600080fd5b600061212a86828701611ea3565b935050602061213b86828701611f4b565b925050604084013567ffffffffffffffff81111561215857600080fd5b61216486828701611f21565b9150509250925092565b60006020828403121561218057600080fd5b600061218e84828501611ecd565b91505092915050565b6000602082840312156121a957600080fd5b60006121b784828501611ee2565b91505092915050565b6000602082840312156121d257600080fd5b60006121e084828501611f4b565b91505092915050565b6121f281612e85565b82525050565b61220181612e97565b82525050565b600061221282612d87565b61221c8185612d9d565b935061222c818560208601612f08565b612235816130a3565b840191505092915050565b600061224b82612d92565b6122558185612dae565b9350612265818560208601612f08565b61226e816130a3565b840191505092915050565b600061228482612d92565b61228e8185612dbf565b935061229e818560208601612f08565b80840191505092915050565b60006122b7603283612dae565b91507f4552433732313a207472616e7366657220746f206e6f6e20455243373231526560008301527f63656976657220696d706c656d656e74657200000000000000000000000000006020830152604082019050919050565b600061231d602683612dae565b91507f4f776e61626c653a206e6577206f776e657220697320746865207a65726f206160008301527f64647265737300000000000000000000000000000000000000000000000000006020830152604082019050919050565b6000612383601c83612dae565b91507f4552433732313a20746f6b656e20616c7265616479206d696e746564000000006000830152602082019050919050565b60006123c3602483612dae565b91507f4552433732313a207472616e7366657220746f20746865207a65726f2061646460008301527f72657373000000000000000000000000000000000000000000000000000000006020830152604082019050919050565b6000612429601983612dae565b91507f4552433732313a20617070726f766520746f2063616c6c6572000000000000006000830152602082019050919050565b6000612469602c83612dae565b91507f4552433732313a206f70657261746f7220717565727920666f72206e6f6e657860008301527f697374656e7420746f6b656e00000000000000000000000000000000000000006020830152604082019050919050565b60006124cf603883612dae565b91507f4552433732313a20617070726f76652063616c6c6572206973206e6f74206f7760008301527f6e6572206e6f7220617070726f76656420666f7220616c6c00000000000000006020830152604082019050919050565b6000612535602a83612dae565b91507f4552433732313a2062616c616e636520717565727920666f7220746865207a6560008301527f726f2061646472657373000000000000000000000000000000000000000000006020830152604082019050919050565b600061259b602983612dae565b91507f4552433732313a206f776e657220717565727920666f72206e6f6e657869737460008301527f656e7420746f6b656e00000000000000000000000000000000000000000000006020830152604082019050919050565b6000612601602e83612dae565b91507f45524337323155524953746f726167653a2055524920736574206f66206e6f6e60008301527f6578697374656e7420746f6b656e0000000000000000000000000000000000006020830152604082019050919050565b6000612667602c83612dae565b91507f546869732066756e6374696f6e2063616e206f6e6c792062652063616c6c656460008301527f20627920616e2061646d696e00000000000000000000000000000000000000006020830152604082019050919050565b60006126cd602083612dae565b91507f4552433732313a206d696e7420746f20746865207a65726f20616464726573736000830152602082019050919050565b600061270d603183612dae565b91507f45524337323155524953746f726167653a2055524920717565727920666f722060008301527f6e6f6e6578697374656e7420746f6b656e0000000000000000000000000000006020830152604082019050919050565b6000612773602c83612dae565b91507f4552433732313a20617070726f76656420717565727920666f72206e6f6e657860008301527f697374656e7420746f6b656e00000000000000000000000000000000000000006020830152604082019050919050565b60006127d9602083612dae565b91507f4f776e61626c653a2063616c6c6572206973206e6f7420746865206f776e65726000830152602082019050919050565b6000612819602983612dae565b91507f4552433732313a207472616e73666572206f6620746f6b656e2074686174206960008301527f73206e6f74206f776e00000000000000000000000000000000000000000000006020830152604082019050919050565b600061287f602f83612dae565b91507f4552433732314d657461646174613a2055524920717565727920666f72206e6f60008301527f6e6578697374656e7420746f6b656e00000000000000000000000000000000006020830152604082019050919050565b60006128e5602183612dae565b91507f4552433732313a20617070726f76616c20746f2063757272656e74206f776e6560008301527f72000000000000000000000000000000000000000000000000000000000000006020830152604082019050919050565b600061294b603183612dae565b91507f4552433732313a207472616e736665722063616c6c6572206973206e6f74206f60008301527f776e6572206e6f7220617070726f7665640000000000000000000000000000006020830152604082019050919050565b6129ad81612eef565b82525050565b60006129bf8285612279565b91506129cb8284612279565b91508190509392505050565b60006020820190506129ec60008301846121e9565b92915050565b6000608082019050612a0760008301876121e9565b612a1460208301866121e9565b612a2160408301856129a4565b8181036060830152612a338184612207565b905095945050505050565b6000602082019050612a5360008301846121f8565b92915050565b60006020820190508181036000830152612a738184612240565b905092915050565b60006020820190508181036000830152612a94816122aa565b9050919050565b60006020820190508181036000830152612ab481612310565b9050919050565b60006020820190508181036000830152612ad481612376565b9050919050565b60006020820190508181036000830152612af4816123b6565b9050919050565b60006020820190508181036000830152612b148161241c565b9050919050565b60006020820190508181036000830152612b348161245c565b9050919050565b60006020820190508181036000830152612b54816124c2565b9050919050565b60006020820190508181036000830152612b7481612528565b9050919050565b60006020820190508181036000830152612b948161258e565b9050919050565b60006020820190508181036000830152612bb4816125f4565b9050919050565b60006020820190508181036000830152612bd48161265a565b9050919050565b60006020820190508181036000830152612bf4816126c0565b9050919050565b60006020820190508181036000830152612c1481612700565b9050919050565b60006020820190508181036000830152612c3481612766565b9050919050565b60006020820190508181036000830152612c54816127cc565b9050919050565b60006020820190508181036000830152612c748161280c565b9050919050565b60006020820190508181036000830152612c9481612872565b9050919050565b60006020820190508181036000830152612cb4816128d8565b9050919050565b60006020820190508181036000830152612cd48161293e565b9050919050565b6000602082019050612cf060008301846129a4565b92915050565b6000604051905081810181811067ffffffffffffffff82111715612d1d57612d1c613074565b5b8060405250919050565b600067ffffffffffffffff821115612d4257612d41613074565b5b601f19601f8301169050602081019050919050565b600067ffffffffffffffff821115612d7257612d71613074565b5b601f19601f8301169050602081019050919050565b600081519050919050565b600081519050919050565b600082825260208201905092915050565b600082825260208201905092915050565b600081905092915050565b6000612dd582612eef565b9150612de083612eef565b9250827fffffffffffffffffffffffffffffffffffffffffffffffffffffffffffffffff03821115612e1557612e14612fe7565b5b828201905092915050565b6000612e2b82612eef565b9150612e3683612eef565b925082612e4657612e45613016565b5b828204905092915050565b6000612e5c82612eef565b9150612e6783612eef565b925082821015612e7a57612e79612fe7565b5b828203905092915050565b6000612e9082612ecf565b9050919050565b60008115159050919050565b60007fffffffff0000000000000000000000000000000000000000000000000000000082169050919050565b600073ffffffffffffffffffffffffffffffffffffffff82169050919050565b6000819050919050565b82818337600083830152505050565b60005b83811015612f26578082015181840152602081019050612f0b565b83811115612f35576000848401525b50505050565b60006002820490506001821680612f5357607f821691505b60208210811415612f6757612f66613045565b5b50919050565b6000612f7882612eef565b91507fffffffffffffffffffffffffffffffffffffffffffffffffffffffffffffffff821415612fab57612faa612fe7565b5b600182019050919050565b6000612fc182612eef565b9150612fcc83612eef565b925082612fdc57612fdb613016565b5b828206905092915050565b7f4e487b7100000000000000000000000000000000000000000000000000000000600052601160045260246000fd5b7f4e487b7100000000000000000000000000000000000000000000000000000000600052601260045260246000fd5b7f4e487b7100000000000000000000000000000000000000000000000000000000600052602260045260246000fd5b7f4e487b7100000000000000000000000000000000000000000000000000000000600052604160045260246000fd5b6000601f19601f8301169050919050565b6130bd81612e85565b81146130c857600080fd5b50565b6130d481612e97565b81146130df57600080fd5b50565b6130eb81612ea3565b81146130f657600080fd5b50565b61310281612eef565b811461310d57600080fd5b5056fea264697066735822122015eaba723942563f1389f8ec3d0affd37d56be8c99081c79ff40214e645875f064736f6c63430008000033",
  "immutableReferences": {},
  "source": "//Contract based on [https://docs.openzeppelin.com/contracts/3.x/erc721](https://docs.openzeppelin.com/contracts/3.x/erc721)\n// SPDX-License-Identifier: MIT\npragma solidity ^0.8.0;\n\nimport \"@openzeppelin/contracts/token/ERC721/ERC721.sol\";\nimport \"@openzeppelin/contracts/utils/Counters.sol\";\nimport \"@openzeppelin/contracts/access/Ownable.sol\";\nimport \"@openzeppelin/contracts/token/ERC721/extensions/ERC721URIStorage.sol\";\n\ncontract Coin is ERC721URIStorage, Ownable {\n    using Counters for Counters.Counter;\n    Counters.Counter private _tokenIds;\n    address public admin;\n    address public CoinCollectionAddress;\n\n    constructor() ERC721(\"CoinCollection\", \"COIN\") {\n      admin = msg.sender;\n    }\n\n    modifier onlyAdmin() {\n      require(msg.sender == admin, \"This function can only be called by an admin\");\n      _;\n    }\n\n    modifier onlyCoinCollection() {\n      require(msg.sender == CoinCollectionAddress, \"This function can only be called by the Coin Collection dapp\");\n      _;\n    }\n\n    function updateCoinCollectionAddress(address _coinCollectionAddress)\n      public\n      onlyAdmin\n    {\n      require(_coinCollectionAddress != CoinCollectionAddress);\n      CoinCollectionAddress = _coinCollectionAddress;\n    }\n\n    function mintNFT(address recipient, uint numCoins, string memory tokenURI)\n        public\n    {\n      for (uint i=0; i<numCoins; i++) {\n        _tokenIds.increment();\n\n        uint256 newItemId = _tokenIds.current();\n        _mint(recipient, newItemId);\n        _setTokenURI(newItemId, tokenURI);\n      }\n    }\n}\n",
  "sourcePath": "/Users/lauren/Desktop/ui/blockchain-developer-bootcamp-final-project/contracts/Coin.sol",
  "compiler": {
    "name": "solc",
    "version": "0.8.0+commit.c7dfd78e.Linux.g++"
  },
  "schemaVersion": "3.4.3",
  "updatedAt": "2021-10-22T13:47:44.534Z",
  "networkType": "ethereum",
  "devdoc": {
    "kind": "dev",
    "methods": {
      "approve(address,uint256)": {
        "details": "See {IERC721-approve}."
      },
      "balanceOf(address)": {
        "details": "See {IERC721-balanceOf}."
      },
      "getApproved(uint256)": {
        "details": "See {IERC721-getApproved}."
      },
      "isApprovedForAll(address,address)": {
        "details": "See {IERC721-isApprovedForAll}."
      },
      "name()": {
        "details": "See {IERC721Metadata-name}."
      },
      "owner()": {
        "details": "Returns the address of the current owner."
      },
      "ownerOf(uint256)": {
        "details": "See {IERC721-ownerOf}."
      },
      "renounceOwnership()": {
        "details": "Leaves the contract without owner. It will not be possible to call `onlyOwner` functions anymore. Can only be called by the current owner. NOTE: Renouncing ownership will leave the contract without an owner, thereby removing any functionality that is only available to the owner."
      },
      "safeTransferFrom(address,address,uint256)": {
        "details": "See {IERC721-safeTransferFrom}."
      },
      "safeTransferFrom(address,address,uint256,bytes)": {
        "details": "See {IERC721-safeTransferFrom}."
      },
      "setApprovalForAll(address,bool)": {
        "details": "See {IERC721-setApprovalForAll}."
      },
      "supportsInterface(bytes4)": {
        "details": "See {IERC165-supportsInterface}."
      },
      "symbol()": {
        "details": "See {IERC721Metadata-symbol}."
      },
      "tokenURI(uint256)": {
        "details": "See {IERC721Metadata-tokenURI}."
      },
      "transferFrom(address,address,uint256)": {
        "details": "See {IERC721-transferFrom}."
      },
      "transferOwnership(address)": {
        "details": "Transfers ownership of the contract to a new account (`newOwner`). Can only be called by the current owner."
      }
    },
    "version": 1
  },
  "userdoc": {
    "kind": "user",
    "methods": {},
    "version": 1
  }
}