{
  "contractName": "CoinCollection",
  "abi": [
    {
      "anonymous": false,
      "inputs": [
        {
          "indexed": false,
          "internalType": "uint256",
          "name": "id",
          "type": "uint256"
        }
      ],
      "name": "CollectionCreated",
      "type": "event"
    },
    {
      "inputs": [],
      "name": "admin",
      "outputs": [
        {
          "internalType": "address",
          "name": "",
          "type": "address"
        }
      ],
      "stateMutability": "view",
      "type": "function",
      "constant": true
    },
    {
      "inputs": [],
      "name": "initialize",
      "outputs": [],
      "stateMutability": "nonpayable",
      "type": "function"
    },
    {
      "inputs": [],
      "name": "createCollection",
      "outputs": [
        {
          "internalType": "uint256",
          "name": "",
          "type": "uint256"
        }
      ],
      "stateMutability": "nonpayable",
      "type": "function"
    }
  ],
  "bytecode": "0x608060405234801561001057600080fd5b5061040b806100206000396000f3fe608060405234801561001057600080fd5b506004361061005e576000357c010000000000000000000000000000000000000000000000000000000090048063647f1a9c146100635780638129fc1c14610081578063f851a4401461008b575b600080fd5b61006b6100a9565b60405161007891906102f5565b60405180910390f35b61008961015d565b005b610093610212565b6040516100a091906102ba565b60405180910390f35b60008060025490503360016000600254815260200190815260200160002060006101000a81548173ffffffffffffffffffffffffffffffffffffffff021916908373ffffffffffffffffffffffffffffffffffffffff1602179055507f5baee347cce9899b119eb4f42984958a6e25dc5b505f4f1ab8f3837120cf241f60025460405161013691906102f5565b60405180910390a1600260008154809291906101519061035d565b91905055508091505090565b600360009054906101000a900460ff16156101ad576040517f08c379a00000000000000000000000000000000000000000000000000000000081526004016101a4906102d5565b60405180910390fd5b6001600360006101000a81548160ff021916908315150217905550336000806101000a81548173ffffffffffffffffffffffffffffffffffffffff021916908373ffffffffffffffffffffffffffffffffffffffff1602179055506000600281905550565b60008054906101000a900473ffffffffffffffffffffffffffffffffffffffff1681565b61023f81610321565b82525050565b6000610252602e83610310565b91507f436f6e747261637420696e7374616e63652068617320616c726561647920626560008301527f656e20696e697469616c697a65640000000000000000000000000000000000006020830152604082019050919050565b6102b481610353565b82525050565b60006020820190506102cf6000830184610236565b92915050565b600060208201905081810360008301526102ee81610245565b9050919050565b600060208201905061030a60008301846102ab565b92915050565b600082825260208201905092915050565b600061032c82610333565b9050919050565b600073ffffffffffffffffffffffffffffffffffffffff82169050919050565b6000819050919050565b600061036882610353565b91507fffffffffffffffffffffffffffffffffffffffffffffffffffffffffffffffff82141561039b5761039a6103a6565b5b600182019050919050565b7f4e487b7100000000000000000000000000000000000000000000000000000000600052601160045260246000fdfea2646970667358221220754f4d64b92288e22525b166d4f64fe5b5d48dccd92e5b7011106ce4dbcf15f564736f6c63430008000033",
  "immutableReferences": {},
  "source": "// SPDX-License-Identifier: MIT\npragma solidity >=0.4.22 <0.9.0;\n\nimport \"@openzeppelin/contracts/token/ERC20/IERC20.sol\";\n\ncontract CoinCollection {\n  address public admin;\n  mapping (uint => address) collections;\n  uint collectionCount;\n\n  bool private initialized;\n\n  // do I need a struct to store the ERC20 address?\n\n  event CollectionCreated(uint id);\n  \n  modifier onlyAdmin() {\n    require(msg.sender == admin);\n    _;\n  }\n  \n  modifier onlyOwner(uint collectionId) {\n    require(msg.sender == collections[collectionId]);\n    _;\n  }\n\n  function initialize() public {\n    require(!initialized, \"Contract instance has already been initialized\");\n    initialized = true;\n    admin = msg.sender;\n    collectionCount = 0;\n  }\n\n  function createCollection() public returns(uint)\n  {\n    uint id = collectionCount;\n    collections[collectionCount] = msg.sender;\n    emit CollectionCreated(collectionCount);\n    collectionCount++;\n    return id;\n  }\n  \n//   function getCollection(uint id) onlyOwner(id) public returns() {\n//       return collections[id];\n//   }\n}",
  "sourcePath": "/Users/lauren/Desktop/ui/blockchain-developer-bootcamp-final-project/contracts/CoinCollection.sol",
  "compiler": {
    "name": "solc",
    "version": "0.8.0+commit.c7dfd78e.Linux.g++"
  },
  "schemaVersion": "3.4.3",
  "updatedAt": "2021-10-07T14:40:04.072Z",
  "networkType": "ethereum",
  "devdoc": {
    "kind": "dev",
    "methods": {},
    "version": 1
  },
  "userdoc": {
    "kind": "user",
    "methods": {},
    "version": 1
  }
}