{
  "contractName": "CoinCollection",
  "abi": [
    {
      "anonymous": false,
      "inputs": [
        {
          "indexed": false,
          "internalType": "uint256",
          "name": "id",
          "type": "uint256"
        }
      ],
      "name": "CollectionCreated",
      "type": "event"
    },
    {
      "inputs": [],
      "name": "admin",
      "outputs": [
        {
          "internalType": "address",
          "name": "",
          "type": "address"
        }
      ],
      "stateMutability": "view",
      "type": "function",
      "constant": true
    },
    {
      "inputs": [],
      "name": "initialize",
      "outputs": [],
      "stateMutability": "nonpayable",
      "type": "function"
    },
    {
      "inputs": [
        {
          "internalType": "address",
          "name": "_coinAddress",
          "type": "address"
        },
        {
          "internalType": "uint256",
          "name": "numCoins",
          "type": "uint256"
        },
        {
          "internalType": "string",
          "name": "tokenURI",
          "type": "string"
        }
      ],
      "name": "createCollection",
      "outputs": [],
      "stateMutability": "nonpayable",
      "type": "function"
    }
  ],
  "bytecode": "0x608060405234801561001057600080fd5b5061071c806100206000396000f3fe608060405234801561001057600080fd5b506004361061005e576000357c0100000000000000000000000000000000000000000000000000000000900480638129fc1c14610063578063a919f3d41461006d578063f851a44014610089575b600080fd5b61006b6100a7565b005b6100876004803603810190610082919061034d565b61015c565b005b610091610297565b60405161009e9190610471565b60405180910390f35b600360149054906101000a900460ff16156100f7576040517f08c379a00000000000000000000000000000000000000000000000000000000081526004016100ee906104ca565b60405180910390fd5b6001600360146101000a81548160ff021916908315150217905550336000806101000a81548173ffffffffffffffffffffffffffffffffffffffff021916908373ffffffffffffffffffffffffffffffffffffffff1602179055506000600281905550565b3360016000600254815260200190815260200160002060006101000a81548173ffffffffffffffffffffffffffffffffffffffff021916908373ffffffffffffffffffffffffffffffffffffffff16021790555060008390508073ffffffffffffffffffffffffffffffffffffffff16631e5769123385856040518463ffffffff167c010000000000000000000000000000000000000000000000000000000002815260040161020e9392919061048c565b600060405180830381600087803b15801561022857600080fd5b505af115801561023c573d6000803e3d6000fd5b505050507f5baee347cce9899b119eb4f42984958a6e25dc5b505f4f1ab8f3837120cf241f60025460405161027191906104ea565b60405180910390a16002600081548092919061028c90610600565b919050555050505050565b60008054906101000a900473ffffffffffffffffffffffffffffffffffffffff1681565b60006102ce6102c984610536565b610505565b9050828152602081018484840111156102e657600080fd5b6102f18482856105be565b509392505050565b600081359050610308816106b8565b92915050565b600082601f83011261031f57600080fd5b813561032f8482602086016102bb565b91505092915050565b600081359050610347816106cf565b92915050565b60008060006060848603121561036257600080fd5b6000610370868287016102f9565b935050602061038186828701610338565b925050604084013567ffffffffffffffff81111561039e57600080fd5b6103aa8682870161030e565b9150509250925092565b6103bd81610582565b82525050565b60006103ce82610566565b6103d88185610571565b93506103e88185602086016105cd565b6103f1816106a7565b840191505092915050565b6000610409602e83610571565b91507f436f6e747261637420696e7374616e63652068617320616c726561647920626560008301527f656e20696e697469616c697a65640000000000000000000000000000000000006020830152604082019050919050565b61046b816105b4565b82525050565b600060208201905061048660008301846103b4565b92915050565b60006060820190506104a160008301866103b4565b6104ae6020830185610462565b81810360408301526104c081846103c3565b9050949350505050565b600060208201905081810360008301526104e3816103fc565b9050919050565b60006020820190506104ff6000830184610462565b92915050565b6000604051905081810181811067ffffffffffffffff8211171561052c5761052b610678565b5b8060405250919050565b600067ffffffffffffffff82111561055157610550610678565b5b601f19601f8301169050602081019050919050565b600081519050919050565b600082825260208201905092915050565b600061058d82610594565b9050919050565b600073ffffffffffffffffffffffffffffffffffffffff82169050919050565b6000819050919050565b82818337600083830152505050565b60005b838110156105eb5780820151818401526020810190506105d0565b838111156105fa576000848401525b50505050565b600061060b826105b4565b91507fffffffffffffffffffffffffffffffffffffffffffffffffffffffffffffffff82141561063e5761063d610649565b5b600182019050919050565b7f4e487b7100000000000000000000000000000000000000000000000000000000600052601160045260246000fd5b7f4e487b7100000000000000000000000000000000000000000000000000000000600052604160045260246000fd5b6000601f19601f8301169050919050565b6106c181610582565b81146106cc57600080fd5b50565b6106d8816105b4565b81146106e357600080fd5b5056fea26469706673582212208f89e70b9f771aa6a252a572feafdf38dcc4968c5377c74ea4c1550912504e4964736f6c63430008000033",
  "immutableReferences": {},
  "source": "// SPDX-License-Identifier: MIT\npragma solidity >=0.4.22 <0.9.0;\n\n// import \"@openzeppelin/contracts/token/ERC20/IERC20.sol\";\nimport \"./Coin.sol\";\n\ncontract CoinCollection {\n  address public admin;\n  mapping (uint => address) collections;\n  uint collectionCount;\n  address coinAddress;\n  bool private initialized;\n\n  // do I need a struct to store the ERC20 address?\n\n  event CollectionCreated(uint id);\n  \n  modifier onlyAdmin() {\n    require(msg.sender == admin);\n    _;\n  }\n  \n  modifier onlyOwner(uint collectionId) {\n    require(msg.sender == collections[collectionId]);\n    _;\n  }\n\n  function initialize() public {\n    require(!initialized, \"Contract instance has already been initialized\");\n    initialized = true;\n    admin = msg.sender;\n    collectionCount = 0;\n  }\n\n  function createCollection(address _coinAddress, uint numCoins, string memory tokenURI) public\n  {\n    collections[collectionCount] = msg.sender;\n    Coin coin = Coin(_coinAddress);\n    coin.mintNFT(msg.sender, numCoins, tokenURI);\n    emit CollectionCreated(collectionCount);\n    collectionCount++;\n  }\n  \n  // function getCollection(uint id) onlyOwner(id) public returns() {\n  //     return collections[id];\n  // }\n}",
  "sourcePath": "/Users/lauren/Desktop/ui/blockchain-developer-bootcamp-final-project/contracts/CoinCollection.sol",
  "compiler": {
    "name": "solc",
    "version": "0.8.0+commit.c7dfd78e.Linux.g++"
  },
  "schemaVersion": "3.4.3",
  "updatedAt": "2021-10-22T13:47:44.520Z",
  "networkType": "ethereum",
  "devdoc": {
    "kind": "dev",
    "methods": {},
    "version": 1
  },
  "userdoc": {
    "kind": "user",
    "methods": {},
    "version": 1
  }
}