{
  "contractName": "Crowdfund",
  "abi": [
    {
      "inputs": [],
      "stateMutability": "nonpayable",
      "type": "constructor"
    },
    {
      "anonymous": false,
      "inputs": [
        {
          "indexed": false,
          "internalType": "uint256",
          "name": "amount",
          "type": "uint256"
        }
      ],
      "name": "DonationMade",
      "type": "event"
    },
    {
      "anonymous": false,
      "inputs": [
        {
          "indexed": false,
          "internalType": "uint256",
          "name": "id",
          "type": "uint256"
        }
      ],
      "name": "DonationReceived",
      "type": "event"
    },
    {
      "anonymous": false,
      "inputs": [
        {
          "indexed": false,
          "internalType": "uint256",
          "name": "id",
          "type": "uint256"
        }
      ],
      "name": "FundCreated",
      "type": "event"
    },
    {
      "anonymous": false,
      "inputs": [
        {
          "indexed": true,
          "internalType": "address",
          "name": "previousOwner",
          "type": "address"
        },
        {
          "indexed": true,
          "internalType": "address",
          "name": "newOwner",
          "type": "address"
        }
      ],
      "name": "OwnershipTransferred",
      "type": "event"
    },
    {
      "inputs": [],
      "name": "admin",
      "outputs": [
        {
          "internalType": "address",
          "name": "",
          "type": "address"
        }
      ],
      "stateMutability": "view",
      "type": "function",
      "constant": true
    },
    {
      "inputs": [],
      "name": "owner",
      "outputs": [
        {
          "internalType": "address",
          "name": "",
          "type": "address"
        }
      ],
      "stateMutability": "view",
      "type": "function",
      "constant": true
    },
    {
      "inputs": [],
      "name": "renounceOwnership",
      "outputs": [],
      "stateMutability": "nonpayable",
      "type": "function"
    },
    {
      "inputs": [
        {
          "internalType": "address",
          "name": "newOwner",
          "type": "address"
        }
      ],
      "name": "transferOwnership",
      "outputs": [],
      "stateMutability": "nonpayable",
      "type": "function"
    },
    {
      "inputs": [],
      "name": "initialize",
      "outputs": [],
      "stateMutability": "nonpayable",
      "type": "function"
    },
    {
      "inputs": [
        {
          "internalType": "string",
          "name": "_title",
          "type": "string"
        },
        {
          "internalType": "string",
          "name": "_description",
          "type": "string"
        },
        {
          "internalType": "uint256",
          "name": "_end",
          "type": "uint256"
        },
        {
          "internalType": "uint256",
          "name": "_target",
          "type": "uint256"
        },
        {
          "internalType": "address payable",
          "name": "_donationRecipient",
          "type": "address"
        }
      ],
      "name": "createFund",
      "outputs": [],
      "stateMutability": "nonpayable",
      "type": "function"
    },
    {
      "inputs": [
        {
          "internalType": "uint256",
          "name": "_fundId",
          "type": "uint256"
        }
      ],
      "name": "contribute",
      "outputs": [],
      "stateMutability": "payable",
      "type": "function",
      "payable": true
    },
    {
      "inputs": [
        {
          "internalType": "uint256",
          "name": "_fundId",
          "type": "uint256"
        }
      ],
      "name": "checkFunding",
      "outputs": [
        {
          "internalType": "uint256",
          "name": "",
          "type": "uint256"
        }
      ],
      "stateMutability": "view",
      "type": "function",
      "constant": true
    },
    {
      "inputs": [
        {
          "internalType": "uint256",
          "name": "_fundId",
          "type": "uint256"
        }
      ],
      "name": "processRefund",
      "outputs": [],
      "stateMutability": "nonpayable",
      "type": "function"
    },
    {
      "inputs": [],
      "name": "getAllFunds",
      "outputs": [
        {
          "components": [
            {
              "internalType": "uint256",
              "name": "id",
              "type": "uint256"
            },
            {
              "internalType": "uint256",
              "name": "target",
              "type": "uint256"
            },
            {
              "internalType": "uint256",
              "name": "currentAmount",
              "type": "uint256"
            },
            {
              "internalType": "uint256",
              "name": "end",
              "type": "uint256"
            },
            {
              "internalType": "string",
              "name": "title",
              "type": "string"
            },
            {
              "internalType": "string",
              "name": "description",
              "type": "string"
            },
            {
              "internalType": "address payable",
              "name": "donationRecipient",
              "type": "address"
            },
            {
              "internalType": "address",
              "name": "owner",
              "type": "address"
            },
            {
              "internalType": "bool",
              "name": "active",
              "type": "bool"
            }
          ],
          "internalType": "struct Crowdfund.Fund[]",
          "name": "",
          "type": "tuple[]"
        }
      ],
      "stateMutability": "view",
      "type": "function",
      "constant": true
    },
    {
      "inputs": [],
      "name": "toggleContract",
      "outputs": [],
      "stateMutability": "nonpayable",
      "type": "function"
    }
  ],
  "bytecode": "0x60806040526000600260146101000a81548160ff02191690831515021790555060026006553480156200003157600080fd5b50620000646200004f6200006a640100000000026401000000009004565b62000072640100000000026401000000009004565b62000136565b600033905090565b60008060009054906101000a900473ffffffffffffffffffffffffffffffffffffffff169050816000806101000a81548173ffffffffffffffffffffffffffffffffffffffff021916908373ffffffffffffffffffffffffffffffffffffffff1602179055508173ffffffffffffffffffffffffffffffffffffffff168173ffffffffffffffffffffffffffffffffffffffff167f8be0079c531659141344cd1fd0a4f28419497f9722a3daafe3b4186f6b6457e060405160405180910390a35050565b612c7680620001466000396000f3fe6080604052600436106100b9576000357c0100000000000000000000000000000000000000000000000000000000900480639df90028116100815780639df900281461016b578063c1cbbca714610182578063dac87ca41461019e578063e49a7c91146101c7578063f2fde38b14610204578063f851a4401461022d576100b9565b80631c69b464146100be5780632c33adc0146100e9578063715018a6146101125780638129fc1c146101295780638da5cb5b14610140575b600080fd5b3480156100ca57600080fd5b506100d3610258565b6040516100e0919061271e565b60405180910390f35b3480156100f557600080fd5b50610110600480360381019061010b91906121f3565b6104cb565b005b34801561011e57600080fd5b5061012761089b565b005b34801561013557600080fd5b5061013e610923565b005b34801561014c57600080fd5b506101556109d7565b6040516101629190612703565b60405180910390f35b34801561017757600080fd5b50610180610a00565b005b61019c6004803603810190610197919061229a565b610ad6565b005b3480156101aa57600080fd5b506101c560048036038101906101c0919061229a565b610f72565b005b3480156101d357600080fd5b506101ee60048036038101906101e9919061229a565b611650565b6040516101fb9190612820565b60405180910390f35b34801561021057600080fd5b5061022b600480360381019061022691906121ca565b611894565b005b34801561023957600080fd5b5061024261198c565b60405161024f9190612703565b60405180910390f35b60606008805480602002602001604051908101604052809291908181526020016000905b828210156104c2578382906000526020600020906008020160405180610120016040529081600082015481526020016001820154815260200160028201548152602001600382015481526020016004820180546102d890612ab3565b80601f016020809104026020016040519081016040528092919081815260200182805461030490612ab3565b80156103515780601f1061032657610100808354040283529160200191610351565b820191906000526020600020905b81548152906001019060200180831161033457829003601f168201915b5050505050815260200160058201805461036a90612ab3565b80601f016020809104026020016040519081016040528092919081815260200182805461039690612ab3565b80156103e35780601f106103b8576101008083540402835291602001916103e3565b820191906000526020600020905b8154815290600101906020018083116103c657829003601f168201915b505050505081526020016006820160009054906101000a900473ffffffffffffffffffffffffffffffffffffffff1673ffffffffffffffffffffffffffffffffffffffff1673ffffffffffffffffffffffffffffffffffffffff1681526020016007820160009054906101000a900473ffffffffffffffffffffffffffffffffffffffff1673ffffffffffffffffffffffffffffffffffffffff1673ffffffffffffffffffffffffffffffffffffffff1681526020016007820160149054906101000a900460ff1615151515815250508152602001906001019061027c565b50505050905090565b6001600260146101000a81548160ff0219169083151502179055610524576040517f08c379a000000000000000000000000000000000000000000000000000000000815260040161051b90612780565b60405180910390fd5b600061053060016119b2565b90506000604051806101200160405280838152602001858152602001600081526020018681526020018881526020018781526020018473ffffffffffffffffffffffffffffffffffffffff1681526020013373ffffffffffffffffffffffffffffffffffffffff16815260200160011515815250905080600360008481526020019081526020016000206000820151816000015560208201518160010155604082015181600201556060820151816003015560808201518160040190805190602001906105fe929190612080565b5060a082015181600501908051906020019061061b929190612080565b5060c08201518160060160006101000a81548173ffffffffffffffffffffffffffffffffffffffff021916908373ffffffffffffffffffffffffffffffffffffffff16021790555060e08201518160070160006101000a81548173ffffffffffffffffffffffffffffffffffffffff021916908373ffffffffffffffffffffffffffffffffffffffff1602179055506101008201518160070160146101000a81548160ff02191690831515021790555090505081600460003373ffffffffffffffffffffffffffffffffffffffff1673ffffffffffffffffffffffffffffffffffffffff168152602001908152602001600020819055506008819080600181540180825580915050600190039060005260206000209060080201600090919091909150600082015181600001556020820151816001015560408201518160020155606082015181600301556080820151816004019080519060200190610782929190612080565b5060a082015181600501908051906020019061079f929190612080565b5060c08201518160060160006101000a81548173ffffffffffffffffffffffffffffffffffffffff021916908373ffffffffffffffffffffffffffffffffffffffff16021790555060e08201518160070160006101000a81548173ffffffffffffffffffffffffffffffffffffffff021916908373ffffffffffffffffffffffffffffffffffffffff1602179055506101008201518160070160146101000a81548160ff02191690831515021790555050507fec41606da1b7e318a73aa4bf363741fa612f34a0bdc09cf8e6b3417289ad1a51826040516108809190612820565b60405180910390a161089260016119c0565b50505050505050565b6108a36119d6565b73ffffffffffffffffffffffffffffffffffffffff166108c16109d7565b73ffffffffffffffffffffffffffffffffffffffff1614610917576040517f08c379a000000000000000000000000000000000000000000000000000000000815260040161090e906127a0565b60405180910390fd5b61092160006119de565b565b60001515600260149054906101000a900460ff16151514610979576040517f08c379a000000000000000000000000000000000000000000000000000000000815260040161097090612760565b60405180910390fd5b33600260006101000a81548173ffffffffffffffffffffffffffffffffffffffff021916908373ffffffffffffffffffffffffffffffffffffffff1602179055506001600260146101000a81548160ff021916908315150217905550565b60008060009054906101000a900473ffffffffffffffffffffffffffffffffffffffff16905090565b610a086119d6565b73ffffffffffffffffffffffffffffffffffffffff16610a266109d7565b73ffffffffffffffffffffffffffffffffffffffff1614610a7c576040517f08c379a0000000000000000000000000000000000000000000000000000000008152600401610a73906127a0565b60405180910390fd5b60011515600260149054906101000a900460ff1615151415610ab8576000600260146101000a81548160ff021916908315150217905550610ad4565b6001600260146101000a81548160ff0219169083151502179055505b565b6001600260146101000a81548160ff0219169083151502179055610b2f576040517f08c379a0000000000000000000000000000000000000000000000000000000008152600401610b2690612780565b60405180910390fd5b806000600360008381526020019081526020016000206040518061012001604052908160008201548152602001600182015481526020016002820154815260200160038201548152602001600482018054610b8990612ab3565b80601f0160208091040260200160405190810160405280929190818152602001828054610bb590612ab3565b8015610c025780601f10610bd757610100808354040283529160200191610c02565b820191906000526020600020905b815481529060010190602001808311610be557829003601f168201915b50505050508152602001600582018054610c1b90612ab3565b80601f0160208091040260200160405190810160405280929190818152602001828054610c4790612ab3565b8015610c945780601f10610c6957610100808354040283529160200191610c94565b820191906000526020600020905b815481529060010190602001808311610c7757829003601f168201915b505050505081526020016006820160009054906101000a900473ffffffffffffffffffffffffffffffffffffffff1673ffffffffffffffffffffffffffffffffffffffff1673ffffffffffffffffffffffffffffffffffffffff1681526020016007820160009054906101000a900473ffffffffffffffffffffffffffffffffffffffff1673ffffffffffffffffffffffffffffffffffffffff1673ffffffffffffffffffffffffffffffffffffffff1681526020016007820160149054906101000a900460ff161515151581525050905060011515816101000151151514610db2576040517f08c379a0000000000000000000000000000000000000000000000000000000008152600401610da9906127c0565b60405180910390fd5b600060036000858152602001908152602001600020905034816002016000828254610ddd9190612902565b9250508190555060056000858152602001908152602001600020339080600181540180825580915050600190039060005260206000200160009091909190916101000a81548173ffffffffffffffffffffffffffffffffffffffff021916908373ffffffffffffffffffffffffffffffffffffffff16021790555034600760003373ffffffffffffffffffffffffffffffffffffffff1673ffffffffffffffffffffffffffffffffffffffff16815260200190815260200160002060008681526020019081526020016000206000828254610eb89190612902565b925050819055508060010154816002015410610f35576000610edd8260020154611aa2565b9050610f0d8260060160009054906101000a900473ffffffffffffffffffffffffffffffffffffffff1682611ad3565b6000610f26828460020154611b5590919063ffffffff16565b9050610f328682611b6b565b50505b7f9874a7967abbb8701e946ae29391c091f59962f042ba4b5d99b1ed7f2e2e3e5584604051610f649190612820565b60405180910390a150505050565b806000805b60056000848152602001908152602001600020805490508111611059573373ffffffffffffffffffffffffffffffffffffffff16600560008581526020019081526020016000208281548110610ff6577f4e487b7100000000000000000000000000000000000000000000000000000000600052603260045260246000fd5b9060005260206000200160009054906101000a900473ffffffffffffffffffffffffffffffffffffffff1673ffffffffffffffffffffffffffffffffffffffff16141561104257611059565b60019150808061105190612ae5565b915050610f77565b506001151581151514806110ce57503373ffffffffffffffffffffffffffffffffffffffff166003600084815260200190815260200160002060070160009054906101000a900473ffffffffffffffffffffffffffffffffffffffff1673ffffffffffffffffffffffffffffffffffffffff16145b61110d576040517f08c379a000000000000000000000000000000000000000000000000000000000815260040161110490612800565b60405180910390fd5b82600060036000838152602001908152602001600020604051806101200160405290816000820154815260200160018201548152602001600282015481526020016003820154815260200160048201805461116790612ab3565b80601f016020809104026020016040519081016040528092919081815260200182805461119390612ab3565b80156111e05780601f106111b5576101008083540402835291602001916111e0565b820191906000526020600020905b8154815290600101906020018083116111c357829003601f168201915b505050505081526020016005820180546111f990612ab3565b80601f016020809104026020016040519081016040528092919081815260200182805461122590612ab3565b80156112725780601f1061124757610100808354040283529160200191611272565b820191906000526020600020905b81548152906001019060200180831161125557829003601f168201915b505050505081526020016006820160009054906101000a900473ffffffffffffffffffffffffffffffffffffffff1673ffffffffffffffffffffffffffffffffffffffff1673ffffffffffffffffffffffffffffffffffffffff1681526020016007820160009054906101000a900473ffffffffffffffffffffffffffffffffffffffff1673ffffffffffffffffffffffffffffffffffffffff1673ffffffffffffffffffffffffffffffffffffffff1681526020016007820160149054906101000a900460ff161515151581525050905060011515816101000151151514611390576040517f08c379a0000000000000000000000000000000000000000000000000000000008152600401611387906127c0565b60405180910390fd5b60006003600087815260200190815260200160002060405180610120016040529081600082015481526020016001820154815260200160028201548152602001600382015481526020016004820180546113e990612ab3565b80601f016020809104026020016040519081016040528092919081815260200182805461141590612ab3565b80156114625780601f1061143757610100808354040283529160200191611462565b820191906000526020600020905b81548152906001019060200180831161144557829003601f168201915b5050505050815260200160058201805461147b90612ab3565b80601f01602080910402602001604051908101604052809291908181526020018280546114a790612ab3565b80156114f45780601f106114c9576101008083540402835291602001916114f4565b820191906000526020600020905b8154815290600101906020018083116114d757829003601f168201915b505050505081526020016006820160009054906101000a900473ffffffffffffffffffffffffffffffffffffffff1673ffffffffffffffffffffffffffffffffffffffff1673ffffffffffffffffffffffffffffffffffffffff1681526020016007820160009054906101000a900473ffffffffffffffffffffffffffffffffffffffff1673ffffffffffffffffffffffffffffffffffffffff1673ffffffffffffffffffffffffffffffffffffffff1681526020016007820160149054906101000a900460ff1615151515815250509050806040015181602001511080156115e05750428160600151105b61161f576040517f08c379a0000000000000000000000000000000000000000000000000000000008152600401611616906127e0565b60405180910390fd5b600061162e8260400151611aa2565b905061163987611e94565b6116478260c0015182611ad3565b50505050505050565b6000806003600084815260200190815260200160002060405180610120016040529081600082015481526020016001820154815260200160028201548152602001600382015481526020016004820180546116aa90612ab3565b80601f01602080910402602001604051908101604052809291908181526020018280546116d690612ab3565b80156117235780601f106116f857610100808354040283529160200191611723565b820191906000526020600020905b81548152906001019060200180831161170657829003601f168201915b5050505050815260200160058201805461173c90612ab3565b80601f016020809104026020016040519081016040528092919081815260200182805461176890612ab3565b80156117b55780601f1061178a576101008083540402835291602001916117b5565b820191906000526020600020905b81548152906001019060200180831161179857829003601f168201915b505050505081526020016006820160009054906101000a900473ffffffffffffffffffffffffffffffffffffffff1673ffffffffffffffffffffffffffffffffffffffff1673ffffffffffffffffffffffffffffffffffffffff1681526020016007820160009054906101000a900473ffffffffffffffffffffffffffffffffffffffff1673ffffffffffffffffffffffffffffffffffffffff1673ffffffffffffffffffffffffffffffffffffffff1681526020016007820160149054906101000a900460ff16151515158152505090508060400151915050919050565b61189c6119d6565b73ffffffffffffffffffffffffffffffffffffffff166118ba6109d7565b73ffffffffffffffffffffffffffffffffffffffff1614611910576040517f08c379a0000000000000000000000000000000000000000000000000000000008152600401611907906127a0565b60405180910390fd5b600073ffffffffffffffffffffffffffffffffffffffff168173ffffffffffffffffffffffffffffffffffffffff161415611980576040517f08c379a000000000000000000000000000000000000000000000000000000000815260040161197790612740565b60405180910390fd5b611989816119de565b50565b600260009054906101000a900473ffffffffffffffffffffffffffffffffffffffff1681565b600081600001549050919050565b6001816000016000828254019250508190555050565b600033905090565b60008060009054906101000a900473ffffffffffffffffffffffffffffffffffffffff169050816000806101000a81548173ffffffffffffffffffffffffffffffffffffffff021916908373ffffffffffffffffffffffffffffffffffffffff1602179055508173ffffffffffffffffffffffffffffffffffffffff168173ffffffffffffffffffffffffffffffffffffffff167f8be0079c531659141344cd1fd0a4f28419497f9722a3daafe3b4186f6b6457e060405160405180910390a35050565b6000611acc6064611abe6006548561205490919063ffffffff16565b61206a90919063ffffffff16565b9050919050565b8173ffffffffffffffffffffffffffffffffffffffff166108fc829081150290604051600060405180830381858888f19350505050158015611b19573d6000803e3d6000fd5b507feb3301a94d74dc3ee739ec081ebeaf60c5e72b48aef0402c21c9f049f84c962281604051611b499190612820565b60405180910390a15050565b60008183611b6391906129e3565b905092915050565b816000600360008381526020019081526020016000206040518061012001604052908160008201548152602001600182015481526020016002820154815260200160038201548152602001600482018054611bc590612ab3565b80601f0160208091040260200160405190810160405280929190818152602001828054611bf190612ab3565b8015611c3e5780601f10611c1357610100808354040283529160200191611c3e565b820191906000526020600020905b815481529060010190602001808311611c2157829003601f168201915b50505050508152602001600582018054611c5790612ab3565b80601f0160208091040260200160405190810160405280929190818152602001828054611c8390612ab3565b8015611cd05780601f10611ca557610100808354040283529160200191611cd0565b820191906000526020600020905b815481529060010190602001808311611cb357829003601f168201915b505050505081526020016006820160009054906101000a900473ffffffffffffffffffffffffffffffffffffffff1673ffffffffffffffffffffffffffffffffffffffff1673ffffffffffffffffffffffffffffffffffffffff1681526020016007820160009054906101000a900473ffffffffffffffffffffffffffffffffffffffff1673ffffffffffffffffffffffffffffffffffffffff1673ffffffffffffffffffffffffffffffffffffffff1681526020016007820160149054906101000a900460ff161515151581525050905060011515816101000151151514611dee576040517f08c379a0000000000000000000000000000000000000000000000000000000008152600401611de5906127c0565b60405180910390fd5b60006003600086815260200190815260200160002090508060070160009054906101000a900473ffffffffffffffffffffffffffffffffffffffff1673ffffffffffffffffffffffffffffffffffffffff166108fc859081150290604051600060405180830381858888f19350505050158015611e6f573d6000803e3d6000fd5b5060008160070160146101000a81548160ff0219169083151502179055505050505050565b60005b6005600083815260200190815260200160002080549050811015612050576000600560008481526020019081526020016000208281548110611f02577f4e487b7100000000000000000000000000000000000000000000000000000000600052603260045260246000fd5b9060005260206000200160009054906101000a900473ffffffffffffffffffffffffffffffffffffffff1690506000611f8a600760008473ffffffffffffffffffffffffffffffffffffffff1673ffffffffffffffffffffffffffffffffffffffff168152602001908152602001600020600086815260200190815260200160002054611aa2565b90506000611ff182600760008673ffffffffffffffffffffffffffffffffffffffff1673ffffffffffffffffffffffffffffffffffffffff168152602001908152602001600020600088815260200190815260200160002054611b5590919063ffffffff16565b90508273ffffffffffffffffffffffffffffffffffffffff166108fc829081150290604051600060405180830381858888f19350505050158015612039573d6000803e3d6000fd5b50505050808061204890612ae5565b915050611e97565b5050565b600081836120629190612989565b905092915050565b600081836120789190612958565b905092915050565b82805461208c90612ab3565b90600052602060002090601f0160209004810192826120ae57600085556120f5565b82601f106120c757805160ff19168380011785556120f5565b828001600101855582156120f5579182015b828111156120f45782518255916020019190600101906120d9565b5b5090506121029190612106565b5090565b5b8082111561211f576000816000905550600101612107565b5090565b60006121366121318461286c565b61283b565b90508281526020810184848401111561214e57600080fd5b612159848285612a71565b509392505050565b60008135905061217081612bfb565b92915050565b60008135905061218581612c12565b92915050565b600082601f83011261219c57600080fd5b81356121ac848260208601612123565b91505092915050565b6000813590506121c481612c29565b92915050565b6000602082840312156121dc57600080fd5b60006121ea84828501612161565b91505092915050565b600080600080600060a0868803121561220b57600080fd5b600086013567ffffffffffffffff81111561222557600080fd5b6122318882890161218b565b955050602086013567ffffffffffffffff81111561224e57600080fd5b61225a8882890161218b565b945050604061226b888289016121b5565b935050606061227c888289016121b5565b925050608061228d88828901612176565b9150509295509295909350565b6000602082840312156122ac57600080fd5b60006122ba848285016121b5565b91505092915050565b60006122cf8383612619565b905092915050565b6122e081612a29565b82525050565b6122ef81612a17565b82525050565b6122fe81612a17565b82525050565b600061230f826128ac565b61231981856128cf565b93508360208202850161232b8561289c565b8060005b85811015612367578484038952815161234885826122c3565b9450612353836128c2565b925060208a0199505060018101905061232f565b50829750879550505050505092915050565b61238281612a3b565b82525050565b6000612393826128b7565b61239d81856128e0565b93506123ad818560208601612a80565b6123b681612bea565b840191505092915050565b60006123ce6026836128f1565b91507f4f776e61626c653a206e6577206f776e657220697320746865207a65726f206160008301527f64647265737300000000000000000000000000000000000000000000000000006020830152604082019050919050565b60006124346027836128f1565b91507f436f6e7472616374206d757374206e6f742068617665206265656e20696e697460008301527f69616c697a6564000000000000000000000000000000000000000000000000006020830152604082019050919050565b600061249a601e836128f1565b91507f436f6e74726163742069732063757272656e746c7920696e61637469766500006000830152602082019050919050565b60006124da6020836128f1565b91507f4f776e61626c653a2063616c6c6572206973206e6f7420746865206f776e65726000830152602082019050919050565b600061251a6016836128f1565b91507f546869732066756e6420697320696e6163746976652e000000000000000000006000830152602082019050919050565b600061255a6043836128f1565b91507f46756e6420636f6c6c656374696f6e206d757374206861766520656e6465642060008301527f616e642074686520676f616c206d757374206e6f742068617665206265656e2060208301527f6d657400000000000000000000000000000000000000000000000000000000006040830152606082019050919050565b60006125e6601f836128f1565b91507f43616c6c6572206d757374206265206120646f6e6f72206f72206f776e6572006000830152602082019050919050565b60006101208301600083015161263260008601826126e5565b50602083015161264560208601826126e5565b50604083015161265860408601826126e5565b50606083015161266b60608601826126e5565b50608083015184820360808601526126838282612388565b91505060a083015184820360a086015261269d8282612388565b91505060c08301516126b260c08601826122d7565b5060e08301516126c560e08601826122e6565b506101008301516126da610100860182612379565b508091505092915050565b6126ee81612a67565b82525050565b6126fd81612a67565b82525050565b600060208201905061271860008301846122f5565b92915050565b600060208201905081810360008301526127388184612304565b905092915050565b60006020820190508181036000830152612759816123c1565b9050919050565b6000602082019050818103600083015261277981612427565b9050919050565b600060208201905081810360008301526127998161248d565b9050919050565b600060208201905081810360008301526127b9816124cd565b9050919050565b600060208201905081810360008301526127d98161250d565b9050919050565b600060208201905081810360008301526127f98161254d565b9050919050565b60006020820190508181036000830152612819816125d9565b9050919050565b600060208201905061283560008301846126f4565b92915050565b6000604051905081810181811067ffffffffffffffff8211171561286257612861612bbb565b5b8060405250919050565b600067ffffffffffffffff82111561288757612886612bbb565b5b601f19601f8301169050602081019050919050565b6000819050602082019050919050565b600081519050919050565b600081519050919050565b6000602082019050919050565b600082825260208201905092915050565b600082825260208201905092915050565b600082825260208201905092915050565b600061290d82612a67565b915061291883612a67565b9250827fffffffffffffffffffffffffffffffffffffffffffffffffffffffffffffffff0382111561294d5761294c612b2e565b5b828201905092915050565b600061296382612a67565b915061296e83612a67565b92508261297e5761297d612b5d565b5b828204905092915050565b600061299482612a67565b915061299f83612a67565b9250817fffffffffffffffffffffffffffffffffffffffffffffffffffffffffffffffff04831182151516156129d8576129d7612b2e565b5b828202905092915050565b60006129ee82612a67565b91506129f983612a67565b925082821015612a0c57612a0b612b2e565b5b828203905092915050565b6000612a2282612a47565b9050919050565b6000612a3482612a47565b9050919050565b60008115159050919050565b600073ffffffffffffffffffffffffffffffffffffffff82169050919050565b6000819050919050565b82818337600083830152505050565b60005b83811015612a9e578082015181840152602081019050612a83565b83811115612aad576000848401525b50505050565b60006002820490506001821680612acb57607f821691505b60208210811415612adf57612ade612b8c565b5b50919050565b6000612af082612a67565b91507fffffffffffffffffffffffffffffffffffffffffffffffffffffffffffffffff821415612b2357612b22612b2e565b5b600182019050919050565b7f4e487b7100000000000000000000000000000000000000000000000000000000600052601160045260246000fd5b7f4e487b7100000000000000000000000000000000000000000000000000000000600052601260045260246000fd5b7f4e487b7100000000000000000000000000000000000000000000000000000000600052602260045260246000fd5b7f4e487b7100000000000000000000000000000000000000000000000000000000600052604160045260246000fd5b6000601f19601f8301169050919050565b612c0481612a17565b8114612c0f57600080fd5b50565b612c1b81612a29565b8114612c2657600080fd5b50565b612c3281612a67565b8114612c3d57600080fd5b5056fea2646970667358221220ffb10e302b5972fbe129c8df55c9393e60db29eb7fb543a6e3ab4c858581c02e64736f6c63430008000033",
  "immutableReferences": {},
  "source": "//Contract based on [https://docs.openzeppelin.com/contracts/3.x/erc721](https://docs.openzeppelin.com/contracts/3.x/erc721)\n// SPDX-License-Identifier: MIT\npragma solidity ^0.8.0;\n\nimport \"@openzeppelin/contracts/utils/Counters.sol\";\nimport \"@openzeppelin/contracts/access/Ownable.sol\";\nimport \"@openzeppelin/contracts/utils/math/SafeMath.sol\";\n\n/// @title A forcible donation contract\n/// @author Lauren Adam\n/// @notice This is a crowd funding contract that donates to a cheritable cause of the creators choosing whether or not it reaches its' goal\n\ncontract Crowdfund is Ownable {\n  using Counters for Counters.Counter;\n  using SafeMath for uint;\n  Counters.Counter private _fundIds; // counter to create fundIds\n  address public admin; // address of the contract admin\n  bool active = false; // toggle-able field to active/deactivate the contract\n\n  struct Fund {\n    uint id;\n    uint target;\n    uint currentAmount;\n    uint end;\n    string title;\n    string description;\n    address payable donationRecipient;\n    address owner;\n    bool active;\n  }\n\n  mapping (uint => Fund) funds; // mapping of fundIds to Fund structs\n  mapping (address => uint) userFunds; // mapping of address to the funds a user has created\n  mapping (uint => address[]) donors; // mapping of a fundId to the addresses of donors\n  uint256 donationPercentage = 2; // percent to donate from funds\n  mapping (address => mapping(uint => uint)) userContributions; // mapping of address to a mapping of fundId to the amount contributed\n  Fund[] allFunds; // array of all funds\n\n  constructor() {}\n\n  /// @notice Initializes contract, setting the admin\n  /// @dev The Alexandr N. Tetearing algorithm could increase precision\n  function initialize() public {\n    require(active == false, \"Contract must not have been initialized\");\n    admin = msg.sender;\n    active = true;\n  }\n\n  event FundCreated(uint id);\n  event DonationReceived(uint id);\n  event DonationMade(uint amount);\n\n  modifier onlyAdmin() {\n    require(msg.sender == admin, \"This function can only be called by an admin\");\n    _;\n  }\n\n  modifier contractActive() {\n    require(active = true, \"Contract is currently inactive\");\n    _;\n  }\n\n  modifier onlyDonorOrOwner(uint _fundId) {\n    bool flag = false;\n    for (uint i=0; i<=donors[_fundId].length; i++) {\n      if (donors[_fundId][i] == msg.sender) {\n        break;\n      }\n      flag = true;\n    }\n    require(flag == true || funds[_fundId].owner == msg.sender, \"Caller must be a donor or owner\");\n    _;\n  }\n\n  modifier isActiveFund(uint _fundId) {\n    Fund memory fund = funds[_fundId];\n    require(fund.active == true, \"This fund is inactive.\");\n    _;\n  }\n\n  /// @notice Create a fund\n  /// @param _title The title of the fund\n  /// @param _description The description of the fund\n  /// @param _end The end date (in seconds) for the fund\n  /// @param _target The goal for the fund (in eth)\n  /// @param _donationRecipient The address for the recipient of the donation\n  function createFund(\n    string memory _title, \n    string memory _description, \n    uint _end, \n    uint _target, \n    address payable _donationRecipient\n    ) public\n      contractActive\n    {\n    uint _fundId = _fundIds.current();\n\n    Fund memory newFund = Fund({\n      id: _fundId,\n      target: _target,\n      currentAmount: 0,\n      end: _end,\n      title: _title,\n      description: _description,\n      donationRecipient: _donationRecipient,\n      owner: msg.sender,\n      active: true\n    });\n\n    funds[_fundId] = newFund;\n    userFunds[msg.sender] = _fundId;\n    allFunds.push(newFund);\n\n    emit FundCreated(_fundId);\n    _fundIds.increment();\n  }\n\n  /// @notice Contribute an amount to an existing fund\n  /// @param _fundId The id of the fund to contribute to\n  function contribute(uint _fundId) public payable contractActive isActiveFund(_fundId) {\n    Fund storage fund = funds[_fundId];\n    fund.currentAmount += msg.value;\n    donors[_fundId].push(msg.sender);\n    userContributions[msg.sender][_fundId] += msg.value;\n\n    if (fund.currentAmount >= fund.target) {\n      uint donation = _calculateDonation(fund.currentAmount);\n      _donate(fund.donationRecipient, donation);\n      uint amountToOwner = fund.currentAmount.sub(donation);\n      _closeFund(_fundId, amountToOwner);\n    }\n\n    emit DonationReceived(_fundId);\n  }\n\n  /// @notice Check the amount a fund has raised\n  /// @param _fundId The id of the fund to check\n  /// @return The current amount the fund has raised\n  function checkFunding(uint _fundId) public view returns(uint) {\n    Fund memory fund = funds[_fundId];\n    return fund.currentAmount;\n  }\n\n  /// @notice Process a refund if conditions are met\n  /// @param _fundId The id of the fund to check\n  function processRefund(uint _fundId) public onlyDonorOrOwner(_fundId) isActiveFund(_fundId) {\n    Fund memory fund = funds[_fundId];\n    require(\n      fund.target < fund.currentAmount \n      && fund.end < block.timestamp, \n      \"Fund collection must have ended and the goal must not have been met\"\n    );\n    uint donation = _calculateDonation(fund.currentAmount);\n\n    _refund(_fundId);\n    _donate(fund.donationRecipient, donation);\n  }\n\n  /// @notice Get all fund structs\n  /// @return all funds\n  function getAllFunds() public view returns(Fund[] memory) {\n    return allFunds;\n  }\n\n  /// @notice Toggle whether contract is active\n  function toggleContract() public onlyOwner {\n    if (active == true) {\n      active = false;\n    } else {\n      active = true;\n    }\n  }\n\n  /// @notice Internal refund method to process refunds for all users who donated\n  /// @param _fundId The id of the fund to refund\n  function _refund(uint _fundId) internal {\n    for (uint i=0; i<donors[_fundId].length; i++) {\n      address donorAddress = donors[_fundId][i];\n      uint userDonation = _calculateDonation(userContributions[donorAddress][_fundId]);\n      uint userContributionAfterDonation = userContributions[donorAddress][_fundId].sub(userDonation);\n      payable(donorAddress).transfer(userContributionAfterDonation);\n    }\n  }\n\n  /// @notice Process the donation\n  /// @param _donationRecipient The address to receive the donation\n  /// @param _donation The amount to donate\n  function _donate(address payable _donationRecipient, uint _donation) internal {\n    _donationRecipient.transfer(_donation);\n    emit DonationMade(_donation);\n  }\n\n  /// @notice Calculate the donation\n  /// @param _amount The amount of eth raised\n  /// @return The donation amount\n  function _calculateDonation(uint _amount) internal view returns(uint) {\n    return (_amount.mul(donationPercentage)).div(100);\n  }\n\n  /// @notice Transfer remaining funds to fund owner and set to inactive\n  /// @param _fundId The id of the fund\n  /// @param _amount The amount of eth remaining after donation\n  function _closeFund(uint _fundId, uint _amount) internal isActiveFund(_fundId) {\n    Fund storage fund = funds[_fundId];\n    payable(fund.owner).transfer(_amount);\n    fund.active = false;\n  }\n}\n",
  "sourcePath": "/Users/lauren/Desktop/ui/blockchain-developer-bootcamp-final-project/contracts/CrowdFund.sol",
  "compiler": {
    "name": "solc",
    "version": "0.8.0+commit.c7dfd78e.Linux.g++"
  },
  "schemaVersion": "3.4.3",
  "updatedAt": "2021-12-01T18:10:54.755Z",
  "networkType": "ethereum",
  "devdoc": {
    "author": "Lauren Adam",
    "kind": "dev",
    "methods": {
      "checkFunding(uint256)": {
        "params": {
          "_fundId": "The id of the fund to check"
        },
        "returns": {
          "_0": "The current amount the fund has raised"
        }
      },
      "contribute(uint256)": {
        "params": {
          "_fundId": "The id of the fund to contribute to"
        }
      },
      "createFund(string,string,uint256,uint256,address)": {
        "params": {
          "_description": "The description of the fund",
          "_donationRecipient": "The address for the recipient of the donation",
          "_end": "The end date (in seconds) for the fund",
          "_target": "The goal for the fund (in eth)",
          "_title": "The title of the fund"
        }
      },
      "getAllFunds()": {
        "returns": {
          "_0": "all funds"
        }
      },
      "initialize()": {
        "details": "The Alexandr N. Tetearing algorithm could increase precision"
      },
      "owner()": {
        "details": "Returns the address of the current owner."
      },
      "processRefund(uint256)": {
        "params": {
          "_fundId": "The id of the fund to check"
        }
      },
      "renounceOwnership()": {
        "details": "Leaves the contract without owner. It will not be possible to call `onlyOwner` functions anymore. Can only be called by the current owner. NOTE: Renouncing ownership will leave the contract without an owner, thereby removing any functionality that is only available to the owner."
      },
      "transferOwnership(address)": {
        "details": "Transfers ownership of the contract to a new account (`newOwner`). Can only be called by the current owner."
      }
    },
    "title": "A forcible donation contract",
    "version": 1
  },
  "userdoc": {
    "kind": "user",
    "methods": {
      "checkFunding(uint256)": {
        "notice": "Check the amount a fund has raised"
      },
      "contribute(uint256)": {
        "notice": "Contribute an amount to an existing fund"
      },
      "createFund(string,string,uint256,uint256,address)": {
        "notice": "Create a fund"
      },
      "getAllFunds()": {
        "notice": "Get all fund structs"
      },
      "initialize()": {
        "notice": "Initializes contract, setting the admin"
      },
      "processRefund(uint256)": {
        "notice": "Process a refund if conditions are met"
      },
      "toggleContract()": {
        "notice": "Toggle whether contract is active"
      }
    },
    "notice": "This is a crowd funding contract that donates to a cheritable cause of the creators choosing whether or not it reaches its' goal",
    "version": 1
  }
}